:020000040000fa
:080000000002040000000000f2
:020000040000fa
:04000800fa020000f8
:020000040000fa
:04000c00fa020000f4
:020000040000fa
:04001000fa020000f0
:020000040000fa
:04001400fa020000ec
:020000040000fa
:04001800fa020000e8
:020000040000fa
:04001c00fa020000e4
:020000040000fa
:04002000fa020000e0
:020000040000fa
:04002400fa020000dc
:020000040000fa
:04002800fa020000d8
:020000040000fa
:04002c00fa020000d4
:020000040000fa
:04003000fa020000d0
:020000040000fa
:04003400fa020000cc
:020000040000fa
:04003800fa020000c8
:020000040000fa
:04003c00fa020000c4
:020000040000fa
:04004000fa020000c0
:020000040000fa
:04004400fa020000bc
:020000040000fa
:04004800fa020000b8
:020000040000fa
:04004c00fa020000b4
:020000040000fa
:04005000fa020000b0
:020000040000fa
:04005400fa020000ac
:020000040000fa
:04005800fa020000a8
:020000040000fa
:04005c00fa020000a4
:020000040000fa
:04006000fa020000a0
:020000040000fa
:04006400fa0200009c
:020000040000fa
:04006800fa02000098
:020000040000fa
:04006c00fa02000094
:020000040000fa
:04007000fa02000090
:020000040000fa
:04007400fa0200008c
:020000040000fa
:04007800fa02000088
:020000040000fa
:04007c00fa02000084
:020000040000fa
:04008000fa02000080
:020000040000fa
:04008400fa0200007c
:020000040000fa
:04008800fa02000078
:020000040000fa
:04008c00fa02000074
:020000040000fa
:04009000fa02000070
:020000040000fa
:04009400fa0200006c
:020000040000fa
:04009800fa02000068
:020000040000fa
:04009c00fa02000064
:020000040000fa
:0400a000fa02000060
:020000040000fa
:0400a400fa0200005c
:020000040000fa
:0400a800fa02000058
:020000040000fa
:0400ac00fa02000054
:020000040000fa
:0400b000fa02000050
:020000040000fa
:0400b400fa0200004c
:020000040000fa
:0400b800fa02000048
:020000040000fa
:0400bc00fa02000044
:020000040000fa
:0400c000fa02000040
:020000040000fa
:0400c400fa0200003c
:020000040000fa
:0400c800fa02000038
:020000040000fa
:0400cc00fa02000034
:020000040000fa
:0400d000fa02000030
:020000040000fa
:0400d400fa0200002c
:020000040000fa
:0400d800fa02000028
:020000040000fa
:0400dc00fa02000024
:020000040000fa
:0400e000fa02000020
:020000040000fa
:0400e400fa0200001c
:020000040000fa
:0400e800fa02000018
:020000040000fa
:0400ec00fa02000014
:020000040000fa
:0400f000fa02000010
:020000040000fa
:0400f400fa0200000c
:020000040000fa
:0400f800fa02000008
:020000040000fa
:0400fc00fa02000004
:020000040000fa
:04010000fa020000ff
:020000040000fa
:04010400fa020000fb
:020000040000fa
:04010800fa020000f7
:020000040000fa
:04010c00fa020000f3
:020000040000fa
:04011000fa020000ef
:020000040000fa
:04011400fa020000eb
:020000040000fa
:04011800fa020000e7
:020000040000fa
:04011c00fa020000e3
:020000040000fa
:04012000fa020000df
:020000040000fa
:04012400fa020000db
:020000040000fa
:04012800fa020000d7
:020000040000fa
:04012c00fa020000d3
:020000040000fa
:04013000fa020000cf
:020000040000fa
:04013400fa020000cb
:020000040000fa
:04013800fa020000c7
:020000040000fa
:04013c00fa020000c3
:020000040000fa
:04014000fa020000bf
:020000040000fa
:04014400fa020000bb
:020000040000fa
:04014800fa020000b7
:020000040000fa
:04014c00fa020000b3
:020000040000fa
:04015000fa020000af
:020000040000fa
:04015400fa020000ab
:020000040000fa
:04015800fa020000a7
:020000040000fa
:04015c00fa020000a3
:020000040000fa
:04016000fa0200009f
:020000040000fa
:04016400fa0200009b
:020000040000fa
:04016800fa02000097
:020000040000fa
:04016c00fa02000093
:020000040000fa
:04017000fa0200008f
:020000040000fa
:04017400fa0200008b
:020000040000fa
:04017800fa02000087
:020000040000fa
:04017c00fa02000083
:020000040000fa
:04018000fa0200007f
:020000040000fa
:04018400fa0200007b
:020000040000fa
:04018800fa02000077
:020000040000fa
:04018c00fa02000073
:020000040000fa
:04019000fa0200006f
:020000040000fa
:04019400fa0200006b
:020000040000fa
:04019800fa02000067
:020000040000fa
:04019c00fa02000063
:020000040000fa
:0401a000fa0200005f
:020000040000fa
:0401a400fa0200005b
:020000040000fa
:0401a800fa02000057
:020000040000fa
:0401ac00fa02000053
:020000040000fa
:0401b000fa0200004f
:020000040000fa
:0401b400fa0200004b
:020000040000fa
:0401b800fa02000047
:020000040000fa
:0401bc00fa02000043
:020000040000fa
:0401c000fa0200003f
:020000040000fa
:0401c400fa0200003b
:020000040000fa
:0401c800fa02000037
:020000040000fa
:0401cc00fa02000033
:020000040000fa
:0401d000fa0200002f
:020000040000fa
:0401d400fa0200002b
:020000040000fa
:0401d800fa02000027
:020000040000fa
:0401dc00fa02000023
:020000040000fa
:0401e000fa0200001f
:020000040000fa
:0401e400fa0200001b
:020000040000fa
:0401e800fa02000017
:020000040000fa
:0401ec00fa02000013
:020000040000fa
:0401f000fa0200000f
:020000040000fa
:0401f400fa0200000b
:020000040000fa
:0401f800fa02000007
:020000040000fa
:0401fc00fa02000003
:020000040000fa
:04020000fa020000fe
:020000040000fa
:04020400fa020000fa
:020000040000fa
:04020800fa020000f6
:020000040000fa
:04020c00fa020000f2
:020000040000fa
:04021000fa020000ee
:020000040000fa
:04021400fa020000ea
:020000040000fa
:04021800fa020000e6
:020000040000fa
:04021c00fa020000e2
:020000040000fa
:04022000fa020000de
:020000040000fa
:04022400fa020000da
:020000040000fa
:04022800fa020000d6
:020000040000fa
:04022c00fa020000d2
:020000040000fa
:04023000fa020000ce
:020000040000fa
:04023400fa020000ca
:020000040000fa
:04023800fa020000c6
:020000040000fa
:04023c00fa020000c2
:020000040000fa
:04024000fa020000be
:020000040000fa
:04024400fa020000ba
:020000040000fa
:04024800fa020000b6
:020000040000fa
:04024c00fa020000b2
:020000040000fa
:04025000fa020000ae
:020000040000fa
:04025400fa020000aa
:020000040000fa
:04025800fa020000a6
:020000040000fa
:04025c00fa020000a2
:020000040000fa
:04026000fa0200009e
:020000040000fa
:04026400fa0200009a
:020000040000fa
:04026800fa02000096
:020000040000fa
:04026c00fa02000092
:020000040000fa
:04027000fa0200008e
:020000040000fa
:04027400fa0200008a
:020000040000fa
:04027800fa02000086
:020000040000fa
:04027c00fa02000082
:020000040000fa
:04028000fa0200007e
:020000040000fa
:04028400fa0200007a
:020000040000fa
:04028800fa02000076
:020000040000fa
:04028c00fa02000072
:020000040000fa
:04029000fa0200006e
:020000040000fa
:04029400fa0200006a
:020000040000fa
:04029800fa02000066
:020000040000fa
:04029c00fa02000062
:020000040000fa
:0402a000fa0200005e
:020000040000fa
:0402a400fa0200005a
:020000040000fa
:0402a800fa02000056
:020000040000fa
:0402ac00fa02000052
:020000040000fa
:0402b000fa0200004e
:020000040000fa
:0402b400fa0200004a
:020000040000fa
:0402b800fa02000046
:020000040000fa
:0402bc00fa02000042
:020000040000fa
:0402c000fa0200003e
:020000040000fa
:0402c400fa0200003a
:020000040000fa
:0402c800fa02000036
:020000040000fa
:0402cc00fa02000032
:020000040000fa
:0402d000fa0200002e
:020000040000fa
:0402d400fa0200002a
:020000040000fa
:0402d800fa02000026
:020000040000fa
:0402dc00fa02000022
:020000040000fa
:0402e000fa0200001e
:020000040000fa
:0402e400fa0200001a
:020000040000fa
:0402e800fa02000016
:020000040000fa
:0402ec00fa02000012
:020000040000fa
:0402f000fa0200000e
:020000040000fa
:0402f400fa0200000a
:020000040000fa
:0402f800fa02000006
:020000040000fa
:0402fc00fa02000002
:020000040000fa
:04030000fa020000fd
:020000040000fa
:04030400fa020000f9
:020000040000fa
:04030800fa020000f5
:020000040000fa
:04030c00fa020000f1
:020000040000fa
:04031000fa020000ed
:020000040000fa
:04031400fa020000e9
:020000040000fa
:04031800fa020000e5
:020000040000fa
:04031c00fa020000e1
:020000040000fa
:04032000fa020000dd
:020000040000fa
:04032400fa020000d9
:020000040000fa
:04032800fa020000d5
:020000040000fa
:04032c00fa020000d1
:020000040000fa
:04033000fa020000cd
:020000040000fa
:04033400fa020000c9
:020000040000fa
:100400006f0121000eff26000e0188000000000091
:10041000000020000000e000020032000001200087
:100420002002880014000700740007000000e000ac
:1004300003003a00809c20000100200002003700e9
:100440000000200001002000810f70000100320038
:100450000f000700000020000000e0000200320052
:100460000000020000000000c608020000000000ba
:100470000040da000000fe00200d20000000e00037
:1004800002003200002020009001880000000600d9
:10049000a1028800800478000000eb001f003700f4
:1004a000e284440054a0b4009905ba00e2844400f8
:1004b00054a0b4009906ba00e284440054a0b400e9
:1004c0000006eb00476fde00fd07b200ae018800ba
:1004d000636ce10003003a000ad801000000eb0061
:1004e0000e003700606ce10008003a00004deb00a0
:1004f0000a05e800020039003420ec000af0a000f0
:100500008b05e900f9ff3e00040037006168e10057
:10051000010032000086eb000b00070019c7ba008b
:100520001905ba000e04e00003003a000a00e000da
:10053000dbff3a0000000600fe07b200ae028800b2
:100540008a047800f5ff37000cd0a300e20f4d00bd
:100550001c00390089027800354dba000a05e80010
:10056000020039003420ec000af0a0008b05e900fd
:100570000f003200254dba000a05e80002003900dc
:100580003420ec000af0a0008b05e90008003200de
:100590000c00e0000600320015cdba000a05e800a4
:1005a000020039003420ec000af0a0008b05e900bd
:1005b0008984e80054a0b4000b00e000e2ff3a0098
:1005c000000006009902ba00055d78008b05e9007d
:1005d000f7ff3200c82ade00055d78008b05e900d0
:1005e000f3ff32000c00e000f1ff320019ddba0029
:1005f000eeff37000040da000000fe0000000500ba
:10060000020037000204e0000b0032008101780094
:100610000002780030417800b14f5100f9ff3200fc
:100620001000200014427800934f52000300310064
:100630000080eb00000006000000eb000000060058
:020000040000fa
:100640004f700000656e0000696e000067200000ba
:10065000446f00006f7200002e2e00002e0000007c
:10066000436c00006f730000696e0000672000009b
:10067000446f00006f7200002e2e00002e0000005c
:100680005265000073650000742000004e65000094
:10069000770000005061000073730000776f000066
:1006a000726400003a0000004e65000077200000f0
:1006b0005061000073730000776f000072640000e7
:1006c0003a0000005061000073730000776f000073
:1006d0007264000020520000657300006574000021
:1006e0000053000075630000636500007373000031
:1006f000667500006c6c00002121000000450000c0
:100700006e740000657200002050000061730000ec
:10071000737700006f720000643a00000057000019
:10072000454c0000434f00004d450000002e0000e6
:100730002e2e00000050000061730000737700004f
:100740006f72000064200000436f000072720000ae
:100750006563000074000000577200006f6e0000b7
:10076000672000005061000073730000776f000085
:1007700072640000005400006f6f0000206d0000e4
:10078000616e00007920000074720000696500004d
:1007900073210000005300007973000074650000ad
:1007a0006d200000526500007365000074000000b9
:1007b000446f00006e650000212100002100000050
:1007c000506c00006561000073650000205400005b
:1007d000727900002041000067610000696e00002e
:0407e0000000000015
:020000040000fa
:1007e4000600fa002007980010002000000f78008f
:1007f4000b0037001000200010079800030037009a
:100804001e0090000000e800100798009e00900071
:1008140000712200808f5000f9ff34001e0fe800a1
:100824002e0090009e007800808f5000f1ff34006d
:100834000080fa00000006000200fa00004f780071
:100844001e00fb0061006000004078000004e0002e
:1008540002003200238ea80001003700238ea90075
:100864001e00fb00620060000000e0000200320095
:100874003feea800010037003feea9001e00fb0078
:10088400640060000000e000020032003fcea800d7
:10089400010037003fcea9001e00fb006800600085
:1008a4000000e000020032003faea8000100370063
:1008b4003faea9000080fa00000006000200fa0022
:1008c400004f78003e0ea9001e407800daff0700b2
:1008d4005a6ea80030002000c1ff07005a6ea9001c
:1008e4000080fa00000006000000fa000040eb005f
:1008f400f2ff070010c0b300f0ff07000080fa0009
:10090400000006000600fa0040479800514798008e
:100914004e409000e14f50000e003a005e409000bf
:10092400f047b000004f78001e00fb004480de005a
:10093400104798009e4078006fc0600020479800e0
:100944001e409000ddff07002e409000dbff0700f3
:10095400110037004e409000e24f50000e003a0064
:10096400de409000f0cbb30000c04000004f7800a0
:100974001e00fb004480de00104798009e40780073
:100984006fc06000204798001e409000cbff070016
:100994002e409000c9ff07000080fa000000060006
:1009a4000000fa000040eb00a3ff07003000200025
:1009b4008bff070030c0b300c0ff070030002000e9
:1009c40087ff070030c0b300bcff070030002000e1
:1009d40083ff070030c0b300b8ff070020c0b30096
:1009e400b6ff070020c0b300b4ff070080c0b30007
:1009f400b2ff07000040eb00b0ff0700c0c0b30027
:100a0400aeff07000040eb00acff070060c0b3007e
:100a1400aaff07000080fa00000006000400fa00a4
:100a2400204798002e4090006f4f6000ae40900029
:100a340000cfb30000c06000104798003e0ea8002d
:100a44001e4090000000fb004480de00004078005f
:100a540079ff07005a6ea800a000200060ff07007d
:100a64005a6ea9001e40780073ff07005a6ea80052
:100a7400a00020005aff07005a6ea9000080fa0067
:100a8400000006000400fa00100798000000eb00c4
:100a9400000f7800060037001e0078009e009000ca
:100aa4000080400010407800dcff07001e0fe800c3
:100ab4001e0078009e0090000080400010407800e6
:100ac4000004e000f4ff3a000080fa000000060091
:100ad4000000fa001f8ea9003beea9003bcea9003e
:100ae4003baea9003a0ea900568ea900566ea90085
:100af4001f0ea9001eeea9003a2ea9003a4ea90025
:100b04003acea9003a6ea9003b8ea8001feea800b9
:100b14001fcea8001faea800438ea80027eea80091
:100b240027cea80027aea800432ea8001f2ea90098
:100b34001f0ea9001e4ea9003b2ea8005a8ea90024
:100b44000080fa00000006000000fa00e171800055
:100b540000202000008060000000e00004003a0053
:100b640030808000e10f500001003a003901070095
:100b74003e2ea9003e4ea8003ecea8003e6ea80020
:100b8400e171800000002100008060000000e000ae
:100b94000a003a001000200011ff070000000000c6
:100ba400e171800000002100008060000000e0008e
:100bb400fbff320010c3b300ee0037000171800068
:100bc40000002800008060000000e0000a003a00f5
:100bd4001000200002ff07000000000001718000e7
:100be40000002800008060000000e000fbff3200ed
:100bf40020c3b300df00370001718000000024002f
:100c0400008060000000e0000a003a0010002000ac
:100c1400f3fe0700000000000171800000002400c2
:100c2400008060000000e000fbff320030c3b3002e
:100c3400d0003700017180000000220000806000b5
:100c44000000e0000a003a0010002000e4fe070063
:100c5400000000000171800000002200008060009c
:100c64000000e000fbff320010c4b300c1003700f5
:100c74003e2ea8003e4ea9003ecea8003e6ea8001f
:100c8400e171800000002100008060000000e000ad
:100c94000a003a0010002000d1fe07000000000006
:100ca400e171800000002100008060000000e0008d
:100cb400fbff320040c3b300ae0037000171800077
:100cc40000002800008060000000e0000a003a00f4
:100cd40010002000c2fe0700000000000171800027
:100ce40000002800008060000000e000fbff3200ec
:100cf40050c3b3009f00370001718000000024003e
:100d0400008060000000e0000a003a0010002000ab
:100d1400b3fe070000000000017180000000240001
:100d2400008060000000e000fbff320060c3b300fd
:100d340090003700017180000000220000806000f4
:100d44000000e0000a003a0010002000a4fe0700a2
:100d5400000000000171800000002200008060009b
:100d64000000e000fbff320020c4b3008100370024
:100d74003e2ea8003e4ea8003ecea9003e6ea8001e
:100d8400e171800000002100008060000000e000ac
:100d94000a003a001000200091fe07000000000045
:100da400e171800000002100008060000000e0008c
:100db400fbff320070c3b3006e0037000171800086
:100dc40000002800008060000000e0000a003a00f3
:100dd4001000200082fe0700000000000171800066
:100de40000002800008060000000e000fbff3200eb
:100df40080c3b3005f00370001718000000024004d
:100e0400008060000000e0000a003a0010002000aa
:100e140073fe070000000000017180000000240040
:100e2400008060000000e000fbff320090c3b300cc
:100e34005000370001718000000022000080600033
:100e44000000e0000a003a001000200064fe0700e1
:100e5400000000000171800000002200008060009a
:100e64000000e000fbff320030c4b3004100370053
:100e74003e2ea8003e4ea8003ecea8003e6ea9001d
:100e8400e171800000002100008060000000e000ab
:100e94000a003a001000200051fe07000000000084
:100ea400e171800000002100008060000000e0008b
:100eb400fbff3200a0c2b3002e0037000171800096
:100ec40000002800008060000000e0000a003a00f2
:100ed4001000200042fe07000000000001718000a5
:100ee40000002800008060000000e000fbff3200ea
:100ef40000c3b3001f00370001718000000024000c
:100f0400008060000000e0000a003a0010002000a9
:100f140033fe07000000000001718000000024007f
:100f2400008060000000e000fbff320030c2b3002c
:100f34001000370001718000000022000080600072
:100f44000000e0000a003a001000200024fe070020
:100f54000000000001718000000022000080600099
:100f64000000e000fbff320040c4b3000100370082
:100f7400e0c6b3000080fa00000006000200fa0098
:100f84000000eb00000f780007003700224ea80095
:100f94003002200012fe0700224ea9003002200079
:100fa4000ffe07001e0fe8001e007800e30f50003c
:100fb400f6ff34000080fa00000006000000fa008a
:100fc400232ea800230ea90047fe070000322800a4
:100fd400acfe0700230ea80022eea9000080fa0050
:100fe400000006000000fa0000332800a5fe0700f8
:100ff400230ea90022eea90020002000f8fd07001e
:10100400230ea90022eea80050002000f4fd0700e2
:10101400230ea90022eea9000080fa0000000600b9
:101024000200fa00e0c6b300004f78000200370067
:10103400c5fe0700004f7800e0c6b3009e4078006c
:1010440080cf5000faff32001e4078000080fa0082
:10105400000006000000fa0023fe070050002000f4
:10106400dffd070011c0b30010c0b30025fe070068
:101074000034280083fe070011c0b30020c0b30071
:1010840020fe0700a03428007efe07004006200052
:10109400d3fd070014fe070050002000d0fd070018
:1010a40011c0b30010c0b30016fe0700403528007d
:1010b40074fe070011c0b30020c0b30011fe070086
:1010c4000030ef000630ef000f003700d4ff0700b8
:1010d40002f0b700008080002100210091407800d8
:1010e40082002100000041000148780002d0bf00c6
:1010f4004afe070020002000b9fd070000808000a0
:101104000000e8000080880000808000e50f5000a7
:10111400eeff3400e00021008040eb00014878003d
:101124001000200030808800effd070020362800e2
:1011340054fe070011c0b30020c0b300f1fd070046
:10114400103728004ffe0700e0152000a4fd07001b
:10115400e5fd070011c0b30010c0b300e9fd0700ae
:10116400f037280047fe070011c0b30020c0b300c9
:10117400e4fd07003000200099fd07000030ef0077
:101184000080fa00000006000000fa0050fe07008c
:1011940003fe0700d4fd07005000200090fd070067
:1011a40011c0b30010c0b300d6fd0700f03828000a
:1011b40034fe07004001200089fd0700232ea9000a
:1011c400230ea800c8fd07005000200084fd07007e
:1011d40011c0b30010c0b300cafd0700f0372800e7
:1011e40028fe070011c0b30020c0b300c5fd0700ee
:1011f400300020007afd07000030ef000f003700b8
:1012040087ff070002f0b700008080002100210062
:10121400914078000201210000004100014878005b
:1012240002d0bf00fdfd0700200020006cfd070078
:10123400008080000000e8000080880000808000ba
:10124400e50f5000eeff3400600121008040eb0008
:10125400014878004006200061fd0700a2fd070058
:1012640011c0b30010c0b300a6fd070070392800f8
:1012740004fe07006000200059fd07009afd0700e6
:10128400e001200056fd070081002100000121003b
:10129400dafc07000000e00010003a0092fd0700ad
:1012a400600020004efd0700b0392800f5fd07005e
:1012b400800c20004afd07008bfd07003fff07005c
:1012c400803e200046fd070087fd070045ff07001c
:1012d4000430ef0084fd0700b8ff370082fd0700eb
:1012e400c03a2800e7fd070024ff07008000200023
:1012f4003bfd0700208080000000e800208088007b
:1013040020808000e40f50001900340076fd0700af
:10131400b03b2800dbfd0700c012200030fd0700b1
:101324000100370015ff0700e17180000020200054
:10133400008060000000e000faff3a006afd070048
:10134400b03c2800cffd070011c0b30020c0b3009b
:101354006cfd0700803d2800cafd070060002000e6
:101364001ffd070060fd07000430ef0093ff370006
:101374005dfd0700003e2800c2fd0700c0122000ea
:0c13840017fd070058fd07008cff370024
:020000040000fa
:101390000810000008000000820000003132330015
:1013a0003435360000000000101000000600000078
:1013b0008000000000100000060000008000000017
:1013c0000610000002000000820000000100000082
:0413d0000000000019
:020000040000fa
:020000040005f5
:047e0000ffff000080
:020000040000fa
:020000040005f5
:047e2000ffffff0061
:020000040000fa
:020000040005f5
:047e30007affff00d6
:020000040000fa
:020000040005f5
:047e3800befeff008b
:020000040000fa
:020000040005f5
:047e4000ffffff0041
:020000040000fa
:020000040005f5
:047e4800ffffff0039
:020000040000fa
:020000040005f5
:047e5000deffff0052
:020000040000fa
:020000040005f5
:047e5800ffffff0029
:020000040000fa
:020000040005f5
:047e6000ffffff0021
:020000040000fa
:020000040005f5
:047e6800ffffff0019
:020000040000fa
:020000040005f5
:047e7000ffffff0011
:020000040000fa
:020000040005f5
:047e7800ffffff0009
:020000040000fa
:020000040005f5
:047e8000fffcff0004
:020000040000fa
:020000040005f5
:047e8800ffffff00f9
:020000040000fa
:020000040005f5
:047ff800ffffff0088
:00000001FF
